:020000040800F2
:1000000000000220590200085D0200085F0200089B
:1000100075020008770200088D0200080000000049
:1000200000000000000000000000000091390008FE
:10003000A502000800000000313A0008076100082E
:10004000BD020008BD020008BD020008BD02000894
:10005000BD020008BD020008BD020008BD02000884
:10006000BD020008BD020008BD020008BD02000874
:10007000BD020008BD020008BD020008BD02000864
:100080002968000839680008B55A00080000000017
:10009000000000000000000000000000495C0008B3
:1000A000BD020008BD020008BD020008BD02000834
:1000B000BD020008BD020008BD020008BD02000824
:1000C000BD020008BD020008BD020008BD02000814
:1000D000BD0200085966000805680008000000001D
:1000E000555C0008BD020008BD02000800000000C9
:1000F000000000000000000000000000BD02000839
:1001000000000000BD020008BD020008BD0200089A
:1001100000000000000000000000000000000000DF
:10012000C55A0008BD0200087D660008BD0200082F
:10013000BD020008000000000000000000000000F8
:10014000000000000000000000000000BD020008E8
:10015000BD020008BD0200088D660008BD0200084F
:10016000BD020008BD020008000000000000000001
:10017000000000000000000000000000000000007F
:1001800000000000BD0200080000000000000000A8
:10019000BD020008BD02000800B583B003F09CFA60
:1001A000224B234A03E052F8041B43F8041B214965
:1001B0008B42F8D3204B02E0002243F8042B1F4A65
:1001C0009342F9D305F092FF694601A803F07CFA47
:1001D0001B4D1C4BED1AAD10002404E0194B53F8D5
:1001E000243098470134A542F8DC174D174BED1A1F
:1001F000AD10002404E0154B53F824309847013427
:10020000A542F8DC0099019809F04CFB0546104C1A
:10021000104BE41AA41004E0013C0E4B53F82430B8
:100220009847002CF8DC284603F04AFA000000202A
:1002300050D90008200000202000002034C30020F6
:10024000E8020008E8020008E8020008E8020008E6
:10025000E8020008E802000814480047FEE71EF024
:10026000040F0CBFEFF30880EFF309807146104ACA
:100270001047FEE7FEE71EF0040F0CBFEFF3088007
:10028000EFF3098071460B4A1047FEE71EF0040F9A
:100290000CBFEFF30880EFF309807146064A104760
:1002A000FEE7FEE7FEE7FEE7704700009901000861
:0E02B000730200088B020008A1020008FEE79E
:1002C00050D90008000000202000002050D900086C
:1002D00000000010000000102000002034C30020A7
:0802E0000000001000000010F6
:1002F00010B504460E4B1A784FF47A73B3FBF2F341
:100300000C4A1068B0FBF3F000F060FD68B90F2CE8
:1003100001D901200AE0002221464FF0FF3000F011
:100320001BFD054B1C60002000E0012010BD00BF3C
:1003300000000020100000200400002008B50B4B36
:100340001A6842F400721A601A6842F480621A60F5
:100350001A6842F480721A60032000F0DFFC0F205C
:10036000FFF7C6FF05F0CEFE002008BD003C0240AE
:10037000034A1168034B1B780B441360704700BF9E
:100380002000002000000020014B1868704700BFCB
:100390002000002010B504464F4B5A6822F440322A
:1003A0005A605A6841680A435A600268536823F4E5
:1003B0008073536002685368016943EA0123536004
:1003C0000268536823F04073536002685368816881
:1003D0000B4353600268936823F4006393600268E0
:1003E0009368C1680B439360826A3C4B9A425BD02E
:1003F0000268936823F07063936002689368816A6F
:100400000B4393600268936823F040539360026843
:100410009368C16A0B4393602268936823F00203D8
:10042000936022689368217E43EA4103936094F8C5
:100430002030002B49D0636A013B072B3FD822684C
:10044000536843F4006353602268536823F46043A5
:10045000536021684B68626A013A43EA42334B6059
:100460002268D36A23F47003D3622168CB6AE269FD
:10047000013A43EA0253CB622268936823F4007383
:1004800093602268936894F8301043EA41239360A4
:100490002268936823F4806393602268936861699B
:1004A00043EA8123936010BD0268936823F0706370
:1004B00093600268936823F040539360ACE740F286
:1004C0007571074805F01AFEB9E72268536823F4EE
:1004D00000635360C4E700BF002301400100000F28
:1004E0004CD3000870470000002800F0E68010B5EB
:1004F00004460268724B9A4204D040F2431171489C
:1005000005F0FCFD636843B1B3F5803F05D0B3F55A
:10051000003F02D0B3F5403F71D1A36843B1B3F1BE
:10052000807F05D0B3F1007F02D0B3F1407F6CD162
:100530002369012B6FD8237E012B72D8A36A7BB36A
:10054000B3F1807F2CD0B3F1007F29D0B3F1407F8D
:1005500026D0B3F1806F23D0B3F1A06F20D0B3F1D8
:10056000C06F1DD0B3F1E06F1AD0B3F1006F17D098
:10057000B3F1106F14D0B3F1206F11D0B3F1306F1D
:100580000ED0B3F1406F0BD0B3F1506F08D0B3F180
:10059000606F05D0B3F1706F02D04B4A934246D1E1
:1005A000E36813B1B3F5006F47D1E369013B0F2B4B
:1005B00049D894F83030012B4BD86369022B4ED8C0
:1005C00094F82030012B50D8A26A3F4B9A420AD0AF
:1005D000E36A43B1B3F1805F05D0B3F1005F02D0AD
:1005E000B3F1405F47D1236C002B4AD0236C13F04A
:1005F000100F4ED00120002384F83C3010BD4FF482
:10060000A271304805F07AFD87E740F245112D4888
:1006100005F074FD8CE74FF4A3712A4805F06EFDD8
:1006200089E740F24711274805F068FD86E74FF457
:10063000A471244805F062FDB2E740F24911214857
:1006400005F05CFDB1E74FF4A5711E4805F056FDBD
:10065000AFE740F24B111B4805F050FDADE74FF4FA
:10066000A671184805F04AFDAAE740F24D11154859
:1006700005F044FDA8E740F25111124805F03EFD97
:10068000B1E72046FFF72EFF0023636484F83C3077
:10069000ACE7236C23F4885323F0020343F00203F6
:1006A00023642046FFF776FE00206064236C23F06D
:1006B000030343F0010323649DE70120704700BF5B
:1006C000002001404CD300080100000F10B5044683
:1006D0000268134B9A4204D040F24331114805F0AE
:1006E0000DFD94F83C30012B18D0012384F83C30E8
:1006F0002268936823F00103936023689B6813F0DA
:10070000010F07D1236C23F4885323F0010343F036
:1007100001032364002084F83C0010BD0220FCE7A4
:10072000002001404CD3000870B582B004460D464D
:10073000164600230193037E012B25D8E36A43B1BB
:10074000B3F1805F05D0B3F1005F02D0B3F1405F39
:1007500020D194F83C30012B00F08B80012384F8E9
:100760003C3023689A6812F0010F1FD19A6842F05A
:1007700001029A60434B1868434BA3FB0030800C86
:1007800000EB400001900EE04FF4A8613F4805F0F7
:10079000B5FCD3E740F241513C4805F0AFFCD8E747
:1007A00001980138019001980028F9D122689368D6
:1007B00013F0010F5FD0236C23F4E06323F00103F7
:1007C00043F480732364536813F4806F05D0236C63
:1007D00023F4405343F480532364236C13F4805F69
:1007E00034D0636C23F006036364002384F83C3048
:1007F000A36B274ADA63A36B264A1A64A36B264AC3
:10080000DA6423686FF022021A602268536843F0AA
:10081000806353602268936843F480739360216817
:1008200033462A464C31A06B00F0C6FC1B4B5B687C
:1008300013F01F0F0DD123689A6812F0405F1DD18D
:100840009A6842F080429A60002015E000236364B9
:10085000CBE72368124A934201D000200CE09A684B
:1008600012F0405F0CD19A6842F080429A600020FA
:1008700002E0022000E0002002B070BD0020FBE793
:100880000020F9E71000002083DE1B434CD3000852
:100890005B0A0008A7080008450A00080023014079
:1008A00000200140704708B5806BFFF7FBFF08BDD3
:1008B0007047704738B50446037E012B00F29580DF
:1008C000E369013B0F2B00F296806369022B00F273
:1008D000988022681168536803F0200311F0020F1A
:1008E0002DD063B3236C13F0100F03D1236C43F4AA
:1008F00000732364936813F0405F19D1237EBBB962
:10090000D36A13F4700F03D0936813F4806F0FD180
:10091000536823F020035360236C23F48073236413
:10092000236C13F4805F03D1236C43F00103236431
:10093000204605F0CFF823686FF012021A60236892
:1009400019685A6802F0800211F0040F36D0002AAC
:1009500034D0226C12F0100F03D1226C42F40052FA
:1009600022649A6812F4401F21D19A6B12F4401F3E
:1009700003D09A6812F4806F19D15A6812F4806F0C
:1009800015D19A6812F0405F11D1227E7AB95A6867
:1009900022F080025A60236C23F480532364236C7A
:1009A00013F4807F03D1236C43F0010323642046BA
:1009B00000F07EF923686FF00C021A60226811685B
:1009C000536803F0400311F0010F04D01BB113680A
:1009D00013F0010F1BD122681168536803F0806384
:1009E00011F0200F00D0F3B938BD40F29D411448FA
:1009F00005F084FB64E740F29E41114805F07EFB60
:100A000063E740F29F410E4805F078FB61E7236CF5
:100A100043F4803323642046FFF74AFF23686FF0D6
:100A200001021A60D7E7636C43F0020363646FF05E
:100A3000200515602046FFF73CFF23681D60D3E7C3
:100A40004CD3000808B5806B40230364436C43F02B
:100A500004034364FFF72DFF08BD08B50346806B10
:100A6000026C12F0500F25D1036C43F40073036441
:100A700003689A6812F0405F19D1027EBAB9DA6A47
:100A800012F4700F03D09A6812F4806F0FD15A6875
:100A900022F020025A60036C23F480730364036C19
:100AA00013F4805F03D1036C43F00103036405F08A
:100AB00011F808BD026C12F0100F04D1826BD26CD9
:100AC00018469047F5E7FFF7F4FEF2E730B583B03C
:100AD00005460C46002301930B68122B02D96E4A7F
:100AE00093424DD16368013B0F2B4FD8A368072B6E
:100AF00052D895F83C30012B00F0CB80012385F8CB
:100B00003C302368092B4DD92868C2689BB203EB9F
:100B100043031E3B072101FA03F322EA0303C360E8
:100B20002868C268A168238803EB43031E3B9940F1
:100B30000A43C2606368062B49D82868426B03EBFE
:100B40008303053B1F2101FA03F322EA03034363F6
:100B50002868426B636803EB8303053B218801FA35
:100B600003F3134343632A684C4B9A425FD02A68CD
:100B70004A4B9A4268D0002085F83C0003B030BD53
:100B80004FF4CB61464805F0B9FAABE740F2596142
:100B9000434805F0B3FAA9E740F25A61404805F02E
:100BA000ADFAA6E7286802699BB203EB430307216D
:100BB00001FA03F322EA0303036128680269A168CA
:100BC000238803EB430399400A430261B2E70C2BED
:100BD00016D82868026B03EB8303233B1F2101FA1D
:100BE00003F322EA030303632868026B636803EBE1
:100BF0008303233B218801FA03F313430363B2E722
:100C00002868C26A03EB8303413B1F2101FA03F307
:100C100022EA0303C3622868C26A636803EB8303A2
:100C2000413B218801FA03F31343C3629BE7236826
:100C3000122B9CD11B4B5A6822F400025A605A684E
:100C400042F480025A6092E72368134A934201D02B
:100C5000112B90D1134B5A6822F480025A605A68C3
:100C600042F400025A6022680B4B9A4283D10E4B29
:100C70001B680E4AA2FB03239B0C03EB83035B0060
:100C80000193019B002B3FF476AF019B013B019345
:100C9000F7E7022072E700BF1200001000200140B9
:100CA0004CD30008002301401000002083DE1B43CA
:100CB00070470000002808DB0901C9B200F160405C
:100CC00000F5614080F80013704700F00F00090143
:100CD000C9B2014B1954704714ED00E000B500F0A3
:100CE0000700C0F1070CBCF1040F28BF4FF0040C43
:100CF000031D062B0FD9C31E4FF0FF3E0EFA0CF05A
:100D000021EA000199400EFA03FE22EA0E0241EAAE
:100D100002005DF804FB0023EEE7000010B5044676
:100D2000C31E042B0FD80A4AD36823F4E0631B04C4
:100D30001B0C240204F4E064234343F0BF6343F438
:100D40000033D36010BD9221024805F0D7F9EAE7DD
:100D500000ED00E084D3000870B506460C46154649
:100D60000F2A0ED80F2C11D80B4BD8682A462146D3
:100D7000C0F30220FFF7B2FF01463046FFF79AFFAB
:100D800070BDAA21054805F0B9F9EBE7AB2103488E
:100D900005F0B4F9E8E700BF00ED00E084D30008F7
:100DA00008B5002808DB00F01F024009012393402A
:100DB000044A42F8203008BDBE21034805F09EF9E0
:100DC000F9E700BF00E100E084D300080138B0F18A
:100DD000807F0BD24FF0E0235861054AF02182F862
:100DE00023100020986107221A6170470120704784
:100DF00000ED00E008B5042807D068B94FF0E02204
:100E0000136923F00403136108BD4FF0E022136956
:100E100043F004031361F7E740F2C911014805F0FC
:100E20006DF9EBE784D3000830B405682C6824F42E
:100E300080242C60046863608368402B05D00368BD
:100E400099600368DA6030BC704703689A60036891
:100E5000D960F8E710B40368D9B210390C4AA2FB84
:100E6000014212090B4CA25CC2655F2909D923F427
:100E70007F7323F0030304338365806D5DF8044BB7
:100E8000704723F47F7323F003038365F5E700BF06
:100E9000ABAAAAAAF8D30008836A826992B9012B87
:100EA0000AD0022B02D00BB100207047C36A13F0A6
:100EB000807F28D100207047C36AB3F1C07F24D05F
:100EC00000207047B2F5005F09D0022B25D9032B13
:100ED00025D1C36A13F0807F23D100207047032BF4
:100EE00003D8DFE803F01404140A00207047C36A33
:100EF00013F0807F0DD100207047C36AB3F1C07F2B
:100F000009D0002070470120704701207047012060
:100F10007047012070470120704701207047002072
:100F2000704701207047000070B50446FFF72CFAA7
:100F3000002C00F03E8105462368954A934231D04B
:100F4000183293422ED0183293422BD0183293424B
:100F500028D01832934225D01832934222D018322A
:100F600093421FD0183293421CD002F5567293421E
:100F700018D01832934215D01832934212D018323A
:100F800093420FD0183293420CD01832934209D0BA
:100F90001832934206D01832934203D0B8217D48CC
:100FA00005F0ACF86368A3B1B3F1007F11D0B3F1E1
:100FB000806F0ED0B3F1C06F0BD0B3F1006F08D0CB
:100FC000B3F1206F05D0B3F1406F02D0B3F1606F81
:100FD0006DD1A3681BB1402B01D0802B6CD1E3688D
:100FE000B3F5007F01D0002B6BD12369B3F5806F7F
:100FF00001D0002B6AD163692BB1B3F5006F02D029
:10100000B3F5805F67D1A3692BB1B3F5005F02D060
:10101000B3F5804F64D1E36923B1B3F5807F01D08C
:10102000202B62D1236A43B1B3F5803F05D0B3F5DD
:10103000003F02D0B3F5403F5CD1636A0BB1042B93
:101040005DD1636AC3B1A36A032B5DD8E36A43B180
:10105000B3F5000F05D0B3F1807F02D0B3F1C07FAC
:1010600057D1236B43B1B3F5001F05D0B3F5800F03
:1010700002D0B3F5C00F51D1002384F834300223DD
:1010800084F835302268136823F001031360236865
:101090001A6812F0010F46D0FFF776F9401B0528B9
:1010A000F5D920236365032084F8350070BDB9218C
:1010B000384805F023F88CE7BA21364805F01EF8C9
:1010C0008DE7BB21334805F019F88EE7BC21314884
:1010D00005F014F88FE7BD212E4805F00FF892E7D0
:1010E000BE212C4805F00AF895E7BF21294805F0F4
:1010F00005F897E7C021274805F000F89DE7C121D2
:10110000244804F0FBFF9CE7C621224804F0F6FFC8
:101110009CE7C7211F4804F0F1FFA2E7C8211D4842
:1011200004F0ECFFA8E71A681B4911406268A06848
:101130000243E06802432069024360690243A069F8
:101140000243E0690243206A02430A43616A0429B8
:1011500024D01A602668756925F00705636A1D4367
:10116000042B07D1A36A1D43E36A1BB12046FFF796
:1011700093FEC0B975612046FFF76CFEE26D3F2318
:101180009340836000206065012384F835308DE74B
:1011900010600240C0D300083F8010F0E16A206B6D
:1011A00001430A43D5E740236365012084F83500F5
:1011B0007CE701207AE700BF2DE9F04104460E46A6
:1011C00017461D46D0F858805A1E4FF6FE739A42B5
:1011D00011D894F83430012B36D0012384F8343000
:1011E00094F83530DBB2012B0BD0002384F8343077
:1011F0000220BDE8F0814FF4E671144804F07EFF50
:10120000E7E7022384F83530002363652B463A462E
:1012100031462046FFF708FEE26D3F239340C8F8B1
:1012200008302268136843F016031360236C23B15F
:101230002268136843F0080313602268136843F0C0
:10124000010313600020D4E70220D2E7C0D30008D6
:1012500070B50446866DFFF797F894F83530DBB229
:10126000022B06D080236365002384F834300120EC
:1012700070BD05462268136823F0160313602268C8
:10128000536923F080035361236CE3B12268136830
:1012900023F0080313602268136823F0010313602E
:1012A00023681B6813F0010F11D0FFF76DF8431B83
:1012B000052BF5D920236365002384F834300320FF
:1012C00084F83500D4E7A36C002BDFD1E3E7E26DAF
:1012D0003F239340B360002084F83400012384F856
:1012E0003530C5E790F83530DBB2022B03D08023D0
:1012F000436501207047052380F835300268136884
:1013000023F001031360002070470000F0B583B0A4
:10131000044600230193724B1D68724BA3FB0535F5
:10132000AD0A876D3E68C26D08239340334210D0EA
:1013300003681A6812F0040F0BD01A6822F0040236
:101340001A60C26D08239340BB60436D43F00103F4
:101350004365E26D01239340334209D0226852690C
:1013600012F0800F04D0BB60636D43F0020363652D
:10137000E26D04239340334209D02268126812F0D0
:10138000020F04D0BB60636D43F004036365E26D3C
:1013900010239340334224D02268126812F0080FC1
:1013A0001FD0BB6023681A6812F4802F0DD01B6811
:1013B00013F4002F04D1236C9BB12046984710E012
:1013C000A36C73B1204698470BE01A6812F4807F33
:1013D00003D11A6822F008021A60236C0BB1204670
:1013E0009847E26D20239340334255D0226812681B
:1013F00012F0100F50D0BB6094F83530DBB2052BE3
:101400000ED023681A6812F4802F33D01B6813F4AF
:10141000002F2AD1636C002B3ED0204698473BE03A
:101420002268136823F0160313602268536923F0BF
:1014300080035361236CA3B12268136823F008036F
:101440001360E26D3F239340BB60002384F8343087
:10145000012384F83530236D002B3FD02046984778
:101460003CE0A36C002BE7D1EBE7E36BA3B1204694
:10147000984711E01A6812F4807F09D11A6822F0A7
:1014800010021A60002384F83430012384F83530C8
:10149000E36B0BB120469847636DFBB1636D13F0AE
:1014A000010F17D0052384F835302268136823F024
:1014B00001031360019B01330193AB4204D82368FD
:1014C0001B6813F0010FF5D1002384F83430012399
:1014D00084F83530E36C0BB12046984703B0F0BD7B
:1014E00010000020B5814E1B406D70472DE9F04380
:1014F00083B007460E469A4B984217D003F5806397
:10150000984213D003F5806398420FD003F58063AF
:1015100098420BD003F58063984207D003F54063EF
:10152000984203D0B3218F4804F0E8FD33689AB2A3
:1015300012B1B3F5803F03D3B4218A4804F0DEFD35
:101540007368012B11D9884A93420ED015D8A2F5A1
:101550008012934209D003D9844A934205D017E000
:10156000032B07D9113B012B12D8B368022B14D8D7
:10157000002459E0022B0BD3F7E77D4A9342F4D0C5
:1015800002F580329342F0D0A2F580129342ECD063
:10159000B521744804F0B2FDE7E7B621714804F0C4
:1015A000ADFDE5E7C8216F4804F0A8FD52E0E02159
:1015B0006C4804F0A3FD7DE0042300E000238B4091
:1015C000034302326B4941F822306B4B1A686FEAD1
:1015D000080322EA0801706810F4803F01D048EA4D
:1015E0000201654A1160526803EA0201706810F452
:1015F000003F01D048EA02015F4A5160926803EA65
:101600000201706810F4801F01D048EA02015A4AB2
:101610009160D2681340716811F4001F01D048EA4C
:101620000203554AD36001340F2C00F29680012545
:10163000A540336803EA050835EA0303F3D173686C
:101640005A1E012A03D9112B01D0122B15D1F36890
:10165000032BA7D8BA68610003238B4022EA030258
:10166000F3688B401343BB607A6822EA0502736813
:10167000C3F30013A34013437B60FA6865000323A0
:10168000AB406FEA030922EA0302B368AB4013439D
:10169000FB607368022B01D0122B1BD133694BB155
:1016A0000F2B84D849F2F67222FA03F313F0010FDC
:1016B0003FF47DAFE208083257F8220004F007013A
:1016C00089000F238B4020EA030033698B400343DA
:1016D00047F822303B6809EA0309736803F0030303
:1016E000AB4043EA09033B60736813F0805F9AD014
:1016F00000230193214B5A6C42F480425A645B6C84
:1017000003F480430193019BA208911C194B53F8E9
:10171000210004F0030189000F238B4020EA03001D
:101720000F4B9F423FF44AAF03F580639F420ED0B8
:1017300003F580639F420CD003F580639F420AD07B
:1017400003F580639F423FF437AF072337E7012358
:1017500035E7022333E7032331E703B0BDE8F08325
:101760000000024000D40008000021100000121008
:101770000000311000380140003C014000380240B8
:1017800038B504460D4621B123691D4207D001201A
:1017900038BD4FF4BF71034804F0B0FCF4E70020FB
:1017A000F6E700BF00D4000870B5054614460E46A3
:1017B00021B1012C08D86CB1AE6170BD40F29F110F
:1017C000064804F09BFCF4E74FF4D071034804F0A2
:1017D00095FCF0E73604AE61EFE700BF00D40008E7
:1017E00008B5054B5B69034200D108BD024B586147
:1017F00004F036FAF9E700BF003C0140002800F091
:101800005A8270B582B0044603680F2B39D823681A
:1018100013F0010F4DD063682BB1B3F5803F02D0B8
:10182000B3F5A02F32D1804B9B6803F00C03042B3F
:1018300036D07D4B9B6803F00C03082B2BD06368DC
:10184000B3F5803F5FD0B3F5A02F62D0764B1A6816
:1018500022F480321A601A6822F480221A606368C7
:10186000002B60D0FEF790FD05466F4B1B6813F40C
:10187000003F1ED1FEF788FD401B6428F5D90320E8
:1018800020E2E821694804F039FCC0E7ED2167480F
:1018900004F034FCC7E7644B5B6813F4800FCED0D0
:1018A000614B1B6813F4003F03D06368002B00F00A
:1018B0000482236813F0020F66D0E368012B41D83D
:1018C00023691F2B44D8584B9B6813F00C0F4AD048
:1018D000554B9B6803F00C03082B3FD0E368002BAB
:1018E00077D0534B01221A60FEF74EFD05464E4B52
:1018F0001B6813F0020F63D1FEF746FD401B022860
:10190000F5D90320DEE1484A136843F480331360BD
:10191000A5E7454B1A6842F480221A601A6842F41F
:1019200080321A609BE7FEF72FFD05463E4B1B6891
:1019300013F4003FBDD0FEF727FD401B6428F5D906
:101940000320BFE140F21F11384804F0D7FBB7E78E
:101950004FF49071354804F0D1FBB4E7324B5B682B
:1019600013F4800FBAD1304B1B6813F0020F03D071
:10197000E368012B40F0A3812B4A136823F0F8039E
:10198000216943EAC1031360236813F0080F51D0A3
:101990006369012B2FD863699BB3254B0122C3F8E0
:1019A000802EFEF7F1FC05461F4B5B6F13F0020F14
:1019B00040D1FEF7E9FC401B0228F5D9032081E164
:1019C000194A136823F0F803216943EAC10313603D
:1019D000DAE7174B00221A60FEF7D6FC0546124BD9
:1019E0001B6813F0020FCFD0FEF7CEFC401B02287D
:1019F000F5D9032066E14FF4B0710C4804F07EFB8A
:101A0000C9E70B4B0022C3F8802EFEF7BDFC05464C
:101A1000054B5B6F13F0020F0CD0FEF7B5FC401BBB
:101A20000228F5D903204DE10038024038D40008DF
:101A300000004742236813F0040F7CD0A368012BF9
:101A400001D9052B38D1A44B1B6C13F0805F39D121
:101A500000230193A04B1A6C42F080521A641B6C55
:101A600003F080530193019B01259C4B1B6813F4E9
:101A7000807F29D0A368012B3AD0052B3ED0964B0E
:101A80001A6F22F001021A671A6F22F004021A6715
:101A9000A368002B3CD0FEF777FC06468E4B1B6FED
:101AA00013F0020F45D1FEF76FFC801B41F2883323
:101AB0009842F3D9032005E14FF4C671884804F039
:101AC0001DFBC0E70025D0E7844A136843F4807308
:101AD0001360FEF759FC0646804B1B6813F4807FA9
:101AE000C8D1FEF751FC801B0228F5D90320E9E09C
:101AF000794A136F43F001031367C9E7764B1A6FF6
:101B000042F004021A671A6F42F001021A67BFE737
:101B1000FEF73AFC0646704B1B6F13F0020F08D01D
:101B2000FEF732FC801B41F288339842F3D9032040
:101B3000C8E0002D3DD1A369022B40D8A369002B3A
:101B400000F0BF80644A926802F00C02082A00F09C
:101B50009280022B7BD1E36913B1B3F5800F34D1AE
:101B6000236A3F2B37D8636AC03BF02B39D8A36A6E
:101B7000022B08D0082B3AD84FF4A87222FA03F3AC
:101B800013F0010F33D0E36A023B0D2B35D8554BD0
:101B900000221A66FEF7F8FB05464F4B1B6813F050
:101BA000007F30D0FEF7F0FB401B0228F5D9032060
:101BB00088E0494A136C23F080531364BBE740F27A
:101BC000CF11474804F09AFAB8E74FF4EC71444853
:101BD00004F094FAC4E740F2D911414804F08EFAB7
:101BE000C1E74FF4ED713E4804F088FABFE740F2D8
:101BF000DB113B4804F082FAC5E74FF4EE71384838
:101C000004F07CFAC3E7E369226A1343626A43EA99
:101C10008213A26A5208013A43EA0243E26A43EAA3
:101C200002632D4A53602F4B01221A66FEF7ACFB6C
:101C30000446294B1B6813F0007F06D1FEF7A4FB76
:101C4000001B0228F5D903203CE000203AE0254B98
:101C500000221A66FEF798FB04461F4B1B6813F020
:101C6000007F06D0FEF790FB001B0228F5D9032069
:101C700028E0002026E0012B26D0174B5B6803F4F8
:101C80008001E269914221D103F03F02216A8A4238
:101C90001ED1616A47F6C0721A408A421AD103F413
:101CA0004032A16A8A421FD103F07063E26A934214
:101CB0001CD1002006E001207047012002E0012035
:101CC00000E0002002B070BD0120FBE70120F9E731
:101CD0000120F7E70120F5E70038024000700040DE
:101CE00038D40008000047420120EBE70120E9E773
:101CF00008B5264B9B6803F00C03042B41D0082B3E
:101D000041D1224B5A6802F03F025B6813F4800F06
:101D100012D01E4B5968C1F388111D480023A1FB46
:101D200000010BF085F9194B5B68C3F301430133E4
:101D30005B00B0FBF3F027E0144B5868C0F3881049
:101D40004FEA401CBCEB000C6EEB0E0E4FEA8E13FC
:101D500043EA9C634FEA8C11B1EB0C0163EB0E0379
:101D6000DB0043EA5173C90011EB000C43F100039F
:101D7000990200234FEA8C2041EA9C510BF058F95C
:101D8000D1E7034800E0034808BD00BF0038024027
:101D900040787D010024F400002800F0FA8070B53E
:101DA0000D4604460368013B0E2B30D8072D34D86E
:101DB0007C4B1B6803F00F03AB4208D2EBB2794AAD
:101DC0001370136803F00F03AB4240F0E480236804
:101DD00013F0020F32D013F0040F04D0724A93684C
:101DE00043F4E0539360236813F0080F04D06E4A65
:101DF000936843F460439360A368C3B1C02B16D0CB
:101E000049D8A02B13D00ED9B02B10D049E040F206
:101E10005121664804F072F9C8E740F25221634844
:101E200004F06CF9C4E7802B01D0902B39D15E4AC5
:101E3000936823F0F003A1680B439360236813F0C9
:101E4000010F48D06368032B31D86368012B34D06D
:101E50009A1E012A38D9544A126812F0020F00F073
:101E60009C8051498A6822F0030213438B60FEF77D
:101E70008BFA06464C4B9B6803F00C036268B3EB8D
:101E8000820F28D0FEF780FA801B41F288339842F7
:101E9000F0D9032070E0E02BC9D0F02BC7D0D02BB5
:101EA000C5D040F27521414804F028F9BFE74FF44E
:101EB0001F713E4804F022F9C7E73B4A126812F44A
:101EC000003FCED1012057E0374A126812F0007F60
:101ED000C7D1012050E0334B1B6803F00F03AB4226
:101EE00007D9EAB22F4B1A701B6803F00F03AB42FD
:101EF00055D1236813F0040F14D0E3685BB1B3F538
:101F0000805F08D0B3F5A05F05D0B3F5C05F02D005
:101F1000B3F5E05F31D1244A936823F4E053E168DC
:101F20000B439360236813F0080F15D023695BB14E
:101F3000B3F5805F08D0B3F5A05F05D0B3F5C05FFF
:101F400002D0B3F5E05F1ED1174A936823F46043D3
:101F5000216943EAC1039360FFF7CAFE124B9B68F5
:101F6000C3F30313124AD35CD840124B1860124BD0
:101F70001868FEF7BDF9002070BD40F2BA210B4889
:101F800004F0BCF8C7E740F2C121084804F0B6F8F5
:101F9000DAE7012070470120EEE70120ECE701209D
:101FA000EAE700BF003C02400038024038D4000895
:101FB00024D500081000002004000020014B186800
:101FC000704700BF1000002008B5FFF7F7FF044B73
:101FD0009B68C3F38223034AD35CD84008BD00BF8B
:101FE000003802401CD5000808B5FFF7E7FF044B96
:101FF0009B68C3F34233034AD35CD84008BD00BF9B
:10200000003802401CD5000810B4036A046A24F0AA
:1020100001040462846924F0F00C4CEA021223F0FB
:102020000A030B43826103625DF8044B704710B4EE
:10203000036A23F0100303628469036A24F4704C7A
:102040004CEA023223F0A00343EA011382610362E7
:102050005DF8044B7047836823F070030B4343F033
:1020600007038360704700002DE9F04104460D46E8
:10207000036A23F001030362036AD0F804808269D3
:1020800022F073020F68174323F002038E681E4389
:102090001C4B984207D0C4F80480A7616B68636347
:1020A0002662BDE8F081CB680BB1082B18D126F071
:1020B0000806EB68334323F00406AB69B3F5007FF1
:1020C00000D09BB96B69B3F5807F00D0A3B928F429
:1020D00040786B6943EA0803AA6942EA0308DAE731
:1020E00041F20271084804F009F8E0E741F20F718B
:1020F000054804F003F8E5E741F21071024803F0E7
:10210000FDFFE4E70000014070D400082DE9F04134
:1021100004460E46036A23F480730362056AD0F80E
:102120000480C36923F073030F681F4325F400750F
:102130008B6845EA03251D4B984207D0C4F80480FC
:10214000E7617368E3632562BDE8F081CB680BB19A
:10215000082B19D125F40065F36845EA032525F419
:102160008065B369B3F5007F00D09BB97369B3F59F
:10217000807F00D0A3B928F44058736948EA031857
:10218000B36948EA0318D9E741F29871084803F0A7
:10219000B5FFDFE741F2A571054803F0AFFFE5E7C2
:1021A00041F2A671024803F0A9FFE4E700000140F4
:1021B00070D400082DE9F04104460D46036A23F46B
:1021C00080530362066AD0F80480C76927F4E647A3
:1021D0000B6847EA032726F400568B6846EA033665
:1021E0000D4B984207D0C4F80480E7616B68236404
:1021F0002662BDE8F0814B69B3F5807F00D02BB932
:1022000028F480486B6948EA8318ECE741F2E471EE
:10221000024803F073FFF3E70000014070D40008A8
:10222000704770470368254A90420ED0B0F1804F46
:102230000BD0A2F57C42904207D002F5806290421A
:1022400003D002F58062904203D123F070034A6804
:1022500013431A4A90421AD0B0F1804F17D0A2F51A
:102260007C42904213D002F5806290420FD002F57A
:10227000806290420BD002F59A32904207D002F56C
:102280008062904203D002F58062904203D123F431
:102290004073CA68134323F080034A691343036001
:1022A0008B68C3620B688362044B984202D001239F
:1022B000436170470B690363F9E700BF0000014009
:1022C000002863D010B504460368314A93421FD0FA
:1022D000B3F1804F1CD0A2F57C42934218D002F596
:1022E0008062934214D002F58062934210D002F5CE
:1022F0009A3293420CD002F58062934208D002F5E4
:102300008062934204D04FF48971224803F0F6FEB4
:10231000A3683BB1102B05D0202B03D0402B01D05C
:10232000602B1BD123692BB1B3F5807F02D0B3F5AD
:10233000007F19D1A3690BB1802B1BD194F83D30DC
:10234000F3B1022384F83D30214651F8040BFFF726
:1023500069FF012384F83D30002010BD40F21311C5
:102360000C4803F0CBFEDDE74FF48A71094803F017
:10237000C5FEDFE740F21511064803F0BFFEDDE7BA
:1023800084F83C302046FFF74BFFDAE70120704726
:102390000000014070D40008002863D010B5044646
:1023A0000368314A93421FD0B3F1804F1CD0A2F58D
:1023B0007C42934218D002F58062934214D002F519
:1023C0008062934210D002F59A3293420CD002F50B
:1023D0008062934208D002F58062934204D040F2BA
:1023E0009B41224803F08AFEA3683BB1102B05D025
:1023F000202B03D0402B01D0602B1BD123692BB1A4
:10240000B3F5807F02D0B3F5007F19D1A3690BB17A
:10241000802B1BD194F83D30F3B1022384F83D307A
:10242000214651F8040BFFF7FDFE012384F83D30EF
:10243000002010BD40F29C410C4803F05FFEDDE738
:1024400040F29D41094803F059FEDFE740F29E410A
:10245000064803F053FEDDE784F83C302046FFF7E2
:10246000E0FEDAE7012070470000014070D4000868
:102470002DE9F04104460E46036A23F0100303627F
:10248000056AD0F80480876927F4E6470B6847EAB5
:10249000032725F020058B6845EA03151D4B98425C
:1024A00007D0C4F80480A7617368A3632562BDE800
:1024B000F081CB680BB1082B19D125F08005F368AA
:1024C00045EA031525F04005B369B3F5007F00D058
:1024D0009BB97369B3F5807F00D0A3B928F4406835
:1024E000736948EA8308B36948EA8308D9E741F287
:1024F0004D71094803F002FEDFE741F25B710648C7
:1025000003F0FCFDE5E741F25C71034803F0F6FDE2
:10251000E4E700BF0000014070D4000870B5044635
:102520000E4615460C2A0BD841F21113D34013F076
:10253000010F07D140F6EC51824803F0DFFD01E0C6
:102540003C2AF7D13368602B01D0702B1DD1B368C2
:102550000BB1022B1FD133690BB1042B21D194F89D
:102560003C30012B00F0EB80012384F83C30022347
:1025700084F83D300C2D51D8DFE805F0195050504B
:102580005750505088505050B40040F6ED516D48AF
:1025900003F0B4FDDBE740F6EE516A4803F0AEFD10
:1025A000D9E740F6EF51674803F0A8FDD7E7236865
:1025B000654A93421FD0B3F1804F1CD0A2F57C42F4
:1025C000934218D002F58062934214D002F58062E3
:1025D000934210D002F59A3293420CD002F58062F9
:1025E000934208D002F58062934204D040F6FB513A
:1025F000544803F083FD31462068FFF735FD22681B
:10260000936943F0080393612268936923F00403FC
:1026100093612268936931690B439361012384F8C4
:102620003D30002084F83C0070BD2368464A934248
:1026300017D0B3F1804F14D0A2F57C42934210D052
:1026400002F5806293420CD002F58062934208D07A
:1026500002F59A32934204D040F60C61394803F0F7
:102660004DFD31462068FFF703FF2268936943F46C
:10267000006393612268936923F480639361226805
:102680009369316943EA01239361C7E723682E4ABE
:10269000934213D0B3F1804F10D0A2F57C42934205
:1026A0000CD002F58062934208D002F5806293421A
:1026B00004D040F61D61234803F020FD3146206818
:1026C000FFF724FD2268D36943F00803D361226831
:1026D000D36923F00403D3612268D36931690B43C2
:1026E000D3619BE72368184A934213D0B3F1804F1C
:1026F00010D0A2F57C4293420CD002F58062934246
:1027000008D002F58062934204D040F62E610D4855
:1027100003F0F4FC31462068FFF74CFD2268D369D2
:1027200043F40063D3612268D36923F48063D361E7
:102730002268D369316943EA0123D3616EE702203D
:1027400072E700BF70D400080000014010B4846834
:1027500024F47F4C42EA03220A4342EA0C028260DC
:102760005DF8044B7047000038B590F83C30012B01
:1027700000F0FE8104460D46012380F83C30022320
:1027800080F83D300B68B3F5805F18D0B3F5005F7B
:1027900015D0A3B1402B12D00BD8202B0FD0302B4B
:1027A0000DD0102B0BD041F28B119F4803F0A6FCEB
:1027B00005E0602B03D0702B01D0502BF3D12268A1
:1027C000936823F47F4323F0770393602B68602B97
:1027D00000F0528169D8402B00F08C8135D9502B04
:1027E00038D12368914A934217D0B3F1804F14D067
:1027F000A2F57C42934210D002F5806293420CD045
:1028000002F58062934208D002F59A32934204D0D6
:1028100041F2CA11844803F071FC6B68B3F5004FB4
:1028200005D023B1022B02D00A2B40F01981EB68AE
:102830000F2B00F21B81EA6869682068FFF7E4FB50
:1028400050212068FFF707FC04E0202B0CD008D9AA
:10285000302B09D0012384F83D30002084F83C005F
:1028600038BD0BB1102BF5D12368704A934217D0B5
:10287000B3F1804F14D0A2F57C42934210D002F500
:10288000806293420CD002F58062934208D002F538
:102890009A32934204D041F2FD11634803F02EFCBA
:1028A00029682068FFF7D7FBD4E7B3F5805F00F015
:1028B0008280B3F5005F3DD123685C4A934213D018
:1028C000B3F1804F10D0A2F57C4293420CD002F5B8
:1028D0008062934208D002F58062934204D041F2B4
:1028E000B611514803F00AFCAB684BB1B3F5805FF9
:1028F00006D0B3F5005F03D0B3F5405F40F09E8093
:102900006B68B3F5004F05D023B1022B02D00A2B20
:1029100040F09A80EB680F2B00F29C80EB686A68AD
:10292000A9682068FFF712FF2268936843F4804388
:1029300093608FE7702B8DD123683C4A934217D068
:10294000B3F1804F14D0A2F57C42934210D002F52F
:10295000806293420CD002F58062934208D002F567
:102960009A32934204D041F29E112F4803F0C6FBE5
:10297000AB6843B1B3F5805F05D0B3F5005F02D01B
:10298000B3F5405F44D16B68B3F5004F04D01BB181
:10299000022B01D00A2B41D1EB680F2B48D8EB68F2
:1029A0006A68A9682068FFF7D1FE2268936843F03F
:1029B000770393604EE723681C4A93423FF44AAF83
:1029C000B3F1804F3FF446AFA2F57C4293423FF40F
:1029D00041AF02F5806293423FF43CAF02F5806262
:1029E00093423FF437AF02F59A3293423FF432AF4D
:1029F00002F5806293423FF42DAF02F5806293426C
:102A00003FF428AF41F29711074803F077FB21E725
:102A100041F2A111044803F071FBB4E741F2A211A5
:102A2000014803F06BFBB7E770D4000800000140D9
:102A300041F2A3114F4803F061FBB0E741F2B91135
:102A40004C4803F05BFB5BE741F2BA11494803F0E5
:102A500055FB5FE741F2BB11464803F04FFB5DE7D2
:102A600041F2CD11434803F049FBE0E641F2CE11BB
:102A7000404803F043FBDEE623683F4A934217D009
:102A8000B3F1804F14D0A2F57C42934210D002F5EE
:102A9000806293420CD002F58062934208D002F526
:102AA0009A32934204D041F2DA11324803F026FB05
:102AB0006B68B3F5004F04D01BB1022B01D00A2B79
:102AC0000CD1EB680F2B0FD8EA6869682068FFF714
:102AD000AEFA60212068FFF7BEFABBE641F2DD11D5
:102AE000244803F00BFBECE741F2DE11214803F030
:102AF00005FBE9E72368204A934217D0B3F1804FE2
:102B000014D0A2F57C42934210D002F58062934229
:102B10000CD002F58062934208D002F59A329342BB
:102B200004D041F2EA11134803F0E8FA6B68B3F5F8
:102B3000004F04D01BB1022B01D00A2B0CD1EB6843
:102B40000F2B0FD8EA6869682068FFF75DFA40210B
:102B50002068FFF780FA7DE641F2ED11054803F0A9
:102B6000CDFAECE741F2EE11024803F0C7FAE9E7CB
:102B7000022075E670D400080000014070B50446DC
:102B80000D461646214B98421FD0B0F1804F1CD005
:102B9000A3F57C43984218D003F58063984214D083
:102BA00003F58063984210D003F59A3398420CD015
:102BB00003F58063984208D003F58063984204D0FF
:102BC00041F6CC11124803F099FA95B10C2D0ED8AC
:102BD000042D06D32A1F40F21113D34013F0010F26
:102BE00007D141F6CD110A4803F088FA01E03C2DE7
:102BF000F7D105F01F050122AA40236A23EA020348
:102C00002362236AAE401E43266270BD000001406D
:102C100070D4000838B504460D460368264A93422E
:102C20000ED0B3F1804F0BD0A2F57C42934207D077
:102C300002F58062934203D002F58062934207D18D
:102C40000C2D05D841F21112EA4012F0010F0DD1FE
:102C50001A4A93421FD01A4A934221D0194A9342EA
:102C600021D040F21351184803F048FA01222946B6
:102C70002068FFF783FF23680F4A934216D022682B
:102C8000936803F00703062B03D0136843F0010396
:102C90001360002038BD002DE8D0042DDBD1E5E71E
:102CA000002DE3D0DAE7002DE0D0DAE75A6C42F4E9
:102CB00000425A64E3E700BF0000014000400140C9
:102CC000004401400048014070D4000838B5044673
:102CD0000D4603682F4A93420ED0B3F1804F0BD0BC
:102CE000A2F57C42934207D002F58062934203D062
:102CF00002F58062934207D10C2D05D841F21112E2
:102D0000EA4012F0010F0DD1234A934227D0234A03
:102D1000934229D0224A934229D040F23751214888
:102D200003F0ECF9002229462068FFF727FF23680B
:102D3000184A93421ED02368196A41F211121142B7
:102D400008D1196A40F24442114203D11A6822F0B4
:102D500001021A60012384F83D30002038BD002DA7
:102D6000E0D0042DD3D1DDE7002DDBD0D2E7002D5C
:102D7000D8D0D2E7196A41F211121142DBD1196A97
:102D800040F244421142D6D15A6C22F400425A64B5
:102D9000D1E700BF00000140004001400044014075
:102DA0000048014070D4000838B504460D46036859
:102DB000374A934213D0B3F1804F10D0A2F57C4232
:102DC00093420CD002F58062934208D002F58062F3
:102DD000934204D040F264612E4803F08FF92B68CF
:102DE000A3B1402B12D00BD8202B0FD0302B0DD0FD
:102DF000102B0BD040F26561264803F07FF905E007
:102E0000602B03D0702B01D0502BF3D16B68802B3B
:102E100000D0A3BB94F83C30012B36D0012384F8BA
:102E20003C30022384F83D3023685968986821F0CB
:102E300070012A680A435A602368154A934212D0E7
:102E4000B3F1804F0FD0A2F57C4293420BD002F534
:102E50008062934207D002F58062934203D002F56C
:102E60009A32934204D120F080006A6802439A604B
:102E7000012384F83D30002084F83C0038BD40F246
:102E80006661044803F03AF9C4E70220F6E700BFA0
:102E900000000140A8D400080268D36823F0C003F2
:102EA000D360202380F8393070470268D36823F458
:102EB0009073D3600268536923F0010353612023A8
:102EC00080F83A30704790F83930DBB2212B01D0CE
:102ED000022070478368B3F5805F17D0036A5A1CDD
:102EE00002621A7803685A60C38C9BB2013B9BB2A2
:102EF000C3844BB90268D36823F08003D3600268AF
:102F0000D36843F04003D36000207047036A1B88F6
:102F10000268C3F30803536003691BB9036A0233F1
:102F20000362E1E7036A01330362DDE710B504469B
:102F30004268884B9A426ED8E36813B1B3F5005FDC
:102F40006FD123692BB1B3F5806F02D0B3F5C06F99
:102F50006DD163694FF6F372134200D123B940F685
:102F6000FE317D4803F0CAF82268136923F4405308
:102F7000E1680B431361A36822691A4363691A432A
:102F8000E3691A432168CB6823F4164323F00C034A
:102F90001343CB602268536923F44073A1690B4348
:102FA0005361E369B3F5004F47D023686B4A9342FE
:102FB00000F0A38002F58062934200F09E80FFF74C
:102FC00003F80021031849411B1841F10001C90011
:102FD00041EA5371DB00181863684FEA83024FEA35
:102FE000937341F100010AF023F85D4AA2FB00311E
:102FF0004909642303FB11031B013233A2FB0323A2
:103000005B0903F0F00202EB011203F00F032168E9
:1030100013448B609CE040F6FB314F4803F06EF8A0
:103020008AE740F6FC314C4803F068F889E740F63F
:10303000FD31494803F062F88BE72368474A934221
:103040002FD002F5806293422BD0FEF7BDFF002304
:10305000021843EB0301121841F10001C90041EAD3
:103060005271D200101841F10001626892185B4160
:1030700009F0DEFF3A4AA2FB00314909642303FB51
:103080001103DB003233A2FB03235B095A0002F475
:10309000F87202EB011203F00703216813448B60FE
:1030A00056E0FEF7A1FF0023021843EB03011218BC
:1030B00041F10001C90041EA5271D200101841F1FA
:1030C0000001626892185B4109F0B2FF244AA2FB3A
:1030D00000314909642303FB1103DB003233A2FBF7
:1030E00003235B095A0002F4F87202EB011203F0A9
:1030F0000703216813448B602AE0FEF775FF002167
:10310000031849411B1841F10001C90041EA5371FC
:10311000DB00181863684FEA83024FEA937341F1AA
:10312000000109F085FF0E4AA2FB00314909642322
:1031300003FB11031B013233A2FB03235B0903F0E2
:10314000F00202EB011203F00F03216813448B60BD
:1031500010BD00BFA037A000E4D40008001001405B
:103160001F85EB5170470000002877D010B504464A
:1031700083690BB303683A4A93420CD0A2F54C42E0
:10318000934208D002F55042934204D040F24B11D2
:10319000344802F0B3FFA369FBB1B3F5807F1CD0C4
:1031A000B3F5007F19D0B3F5407F16D04FF4A67168
:1031B0002C4802F0A3FF10E00368294A93420CD088
:1031C000A2F54C42934208D002F55042934204D0FB
:1031D0004FF4A871234802F091FFA36813B1B3F52F
:1031E000805F29D1E36913B1B3F5004F2AD194F878
:1031F00039306BB3242384F839302268D36823F440
:103200000053D3602046FFF791FE2268136923F430
:10321000904313612268536923F02A0353612268A3
:10322000D36843F40053D3600020E063202384F884
:10323000393084F83A3010BD4FF4A971094802F0D2
:103240005DFFCFE740F25311064802F057FFCEE78B
:1032500084F838302046FFF785FFCBE70120704720
:1032600000100140E4D4000838B5134690F8392026
:10327000D2B2202A30D1044600292FD0002B2FD0E3
:1032800090F83820012A2DD0012280F838200162E0
:103290008384C3840025C563212280F83920026B12
:1032A0001148D063226B11481064226B1048D0641F
:1032B000226B156522680432206BFDF77DFF2368C1
:1032C0006FF040021A6084F838502268536943F066
:1032D00080035361284600E0022038BD0120FCE74E
:1032E0000120FAE70220F8E7F5330008413400082E
:1032F0003335000830B583B0044690F83A00C0B2C8
:1033000020283CD100293DD0002A3DD094F8383007
:10331000012B3BD0012384F83830A162A28500251F
:10332000E563222384F83A30636B1948D863636BF2
:1033300018481864636B1848D864636B1D6520686F
:1033400013460A46011D606BFDF736FF01952368A1
:103350001A6801925A680192019A84F83850DA6822
:1033600042F48072DA602268536943F001035361CA
:103370002268536943F040035361284600E002206D
:1033800003B030BD0120FBE70120F9E70220F7E799
:103390004B340008293500083335000810B50446C1
:1033A0000268D36823F49073D3600268536923F0F2
:1033B0000103536103685A6912F0400F0BD05A6938
:1033C00022F040025A61436B2BB100221A65406B18
:1033D000FDF73EFF28B90020E085202384F83A302D
:1033E00010BD606BFEF780F82028F4D11023E36352
:1033F0000320F5E708B50346806B1B681B6813F4D0
:10340000807F0CD10023C3840268536923F08003BA
:1034100053610268D36843F04003D36008BD03F0F2
:1034200033F8FBE708B50168CA6822F04002CA60B9
:10343000202280F8392003F027F8002008BD7047CB
:1034400008B5806BFFF7FBFF08BD08B50346806B2E
:103450001B681B6813F4807F13D10023C3850268A7
:10346000D36823F48073D3600268536923F00103A7
:1034700053610268536923F040035361202380F8AD
:103480003A3003F01DF808BD08B590F83A30DBB2C9
:10349000222B46D18368B3F5805F0FD003690BBB45
:1034A00003685A68836A591C81621A70C38D9BB283
:1034B000013B9BB2C385F3B1002008BD826A03695A
:1034C00043B903685B68C3F308031380836A02335C
:1034D0008362EBE703685B68DBB21380836A0133C6
:1034E0008362E3E703685B68826A511C816203F0D0
:1034F0007F031370DAE70268D36823F02003D360F8
:103500000268D36823F48073D3600268536923F0A0
:1035100001035361202380F83A3002F0D1FF0020EC
:10352000CBE70220C9E7704708B5806BFFF7FBFFC8
:1035300008BD10B5846B23685A6994F83930DBB242
:10354000212B10D023685A6902F0400294F83A30D7
:10355000DBB2222B11D0E36B43F01003E363204670
:1035600002F076FF10BD02F08002002AEAD00023AC
:10357000E3842046FFF790FCE4E7002AEBD0002329
:10358000E3852046FFF791FCE5E7000010B504460F
:1035900002681368D168526913F00F0F08D113F055
:1035A000200F0BD011F0200F08D0FFF76DFF11E0B6
:1035B00012F001020FD111F4907F0CD113F0800FA3
:1035C00002D011F0800F68D113F0400F02D011F03B
:1035D000400F66D110BD13F0010F06D011F4807FAB
:1035E00003D0E06B40F00100E06313F0040F04D05F
:1035F0001AB1E06B40F00200E06313F0020F04D058
:103600001AB1E06B40F00400E06313F0080F07D03C
:1036100011F0200F00D11AB1E26B42F00802E26310
:10362000E26B002AD6D013F0200F02D011F0200F49
:1036300021D123685B6903F04003E26B12F0080FAD
:1036400000D123B32046FFF730FC23685A6912F0FB
:10365000400F18D05A6922F040025A61636B73B16F
:10366000124A1A65606BFDF73DFE0028B2D0606B10
:10367000036D9847AEE72046FFF706FFD9E72046DF
:1036800002F0E6FEA6E7204602F0E2FEA2E72046B0
:1036900002F0DEFE0023E3639CE72046FFF713FC05
:1036A00098E72046FFF7BEFE94E700BFB13600085A
:1036B00008B5806B0023C385C38402F0C9FE08BD32
:1036C00008B500F02DF8000001230360014B0B60EA
:1036D000704700BF0800002008B500F025F8054B32
:1036E000054A9A60D3F8882042F47002C3F8882013
:1036F00008BD00BF00ED00E000000008BFF34F8FE1
:103700000549CA6802F4E062044B1343CB60BFF37F
:103710004F8F00BFFDE700BF00ED00E00400FA0599
:1037200008B5FFF7EBFF0000054BD3F8882042F403
:103730007002C3F888204FF000629A60704700BFA3
:1037400000ED00E0224B9B6803F00C03042B14D027
:10375000082B16D01BB11F4B1F4A1A6002E01D4BED
:103760001D4A1A601A4B9B68C3F303131B4AD15CB2
:10377000184A1368CB4013607047164B184A1A60FA
:10378000F0E7134B59685A6802F03F0211F4800FBA
:1037900013D0134BB3FBF2F30D4A5268C2F38812F5
:1037A00002FB03F30A4A5268C2F30142013252009B
:1037B000B3FBF2F3074A1360D4E7074BB3FBF2F312
:1037C000034A5268C2F3881202FB03F3EAE700BF20
:1037D00000380240100000200024F40024D5000826
:1037E00040787D0138B5044610F0070F05D020F071
:1037F00007030833834218D8002401F09FF8124BC6
:103800001B68A3B1CCB1114B1B681C4449F6F7727D
:10381000944214D8A34214D20B4A15681D440B4B92
:103820001C6001F051F9284638BD1C46E5E7084BFD
:1038300023F00703044A1360E4E70025F1E70025BD
:10384000EFE70025EDE700BF280000202C00002056
:103850003700002028B108B58B21024806F020F877
:1038600008BD704734D5000800F1080343604FF0ED
:10387000FF328260C360036100230360704700234E
:103880000361704730B40D68B5F1FF3F11D000F10E
:1038900008031C465B681A68AA42FAD963684B6041
:1038A00099608C606160086103680133036030BC1B
:1038B00070470469F2E70369416882688A60416879
:1038C00051605A68824206D0002202611A68013AA9
:1038D0001A601868704782685A60F5E708480068FF
:1038E000006880F308884FF0000080F3148862B607
:1038F00061B6BFF34F8FBFF36F8F00DF00BF0000D3
:1039000008ED00E0DFF80C00016841F4700101608F
:103910007047000088ED00E000B583B000230193FC
:103920000B4B1B68B3F1FF3F0DD14FF0800383F3C6
:103930001188BFF36F8FBFF34F8F019B002BFCD01B
:1039400003B05DF804FBE921024805F0A9FFECE7AC
:103950001400002054D500084FF0807340F8043C58
:1039600021F0010140F8081C054B40F80C3C40F8E0
:10397000202C6FF0020340F8243C4438704700BF0D
:1039800019390008000000000000000000000000DD
:10399000074B19680868B0E8F04F80F30988BFF357
:1039A0006F8F4FF0000080F311887047AFF30080F5
:1039B00084A1002008B54FF0800383F31188BFF382
:1039C0006F8FBFF34F8F0A4A136801331360012BC7
:1039D00000D008BD4FF0E023D3F8043D13F0FF0FF3
:1039E000F7D04FF4D471034805F05AFFF1E700BF58
:1039F0001400002054D5000808B5084B1B683BB1E3
:103A0000064A1368013B13600BB983F3118808BDA4
:103A100040F2AF11024805F043FFF1E71400002027
:103A200054D5000800000000000000000000000065
:103A3000EFF30980BFF36F8F154B1A681EF0100F5C
:103A400008BF20ED108A20E9F04F10602DE9090031
:103A50004FF0800080F31188BFF34F8FBFF36F8F5B
:103A600001F0D8F84FF0000080F3118809BC196804
:103A70000868B0E8F04F1EF0100F08BFB0EC108AD5
:103A800080F30988BFF36F8F704700BFAFF30080EA
:103A900084A1002008B54FF0800383F31188BFF3A1
:103AA0006F8FBFF34F8F00F05FFF28B14FF0E0231F
:103AB0004FF08052C3F8042D002383F3118808BD12
:103AC0004FF0E022002313619361054B1B68054909
:103AD000A1FB03139B09013B53610723136170474B
:103AE00010000020D34D621030B583B04FF0E023BA
:103AF000D3F8002D3D4B9A421AD04FF0E023D3F873
:103B0000002D3B4B9A4219D03A4B1A78D2B201920F
:103B1000FF221A701B78DBB28DF803309DF803305A
:103B200003F08003344A1370344B07221A6015E007
:103B30004FF49871324805F0B3FEDEE740F23111E0
:103B40002F4805F0ADFEDFE72C4A1368013B1360F8
:103B50009DF803305B00DBB28DF803309DF8033035
:103B600013F0800FF0D1254B1B68032B32D1234B70
:103B70001B68032B34D1214A13681B02136003F422
:103B8000E0631360019BDBB21A4A13704FF0E0242C
:103B9000D4F8203D43F47003C4F8203DD4F8203D10
:103BA00043F07043C4F8203DFFF78AFF0025154B12
:103BB0001D60FFF7A7FED4F8343F43F04043C4F83C
:103BC000343FFFF78BFE01F025F8FFF7A5FE2846EE
:103BD00003B030BD4FF4AD71094805F061FEC6E792
:103BE00040F26311064805F05BFEC4E771C20F4165
:103BF00070C20F4100E400E034A0002030A000209B
:103C000054D500081400002008B5EFF305830F2BEE
:103C100006D90F4A9B5CDBB20E4A12789A420AD848
:103C20004FF0E023D3F80C3D03F4E0630A4A126836
:103C3000934206D808BD4FF44071084805F030FEA5
:103C4000EEE74FF44471054805F02AFEF2E700BFA5
:103C5000F0E300E034A0002030A0002054D500089C
:103C60000346406A18B11B6B1868C0F10A00704720
:103C700010B50446FFF79EFEA26BE36B9A4204D098
:103C80000024FFF7B9FE204610BD0124F9E710B566
:103C90000446FFF78FFEA36B23B90124FFF7ACFEA8
:103CA000204610BD0024F9E770B504461546866B22
:103CB000026C5AB903681BB100200136A66370BDBF
:103CC000806801F06FF90023A360F6E76DB94068E2
:103CD00009F026FB6368226C13446360A268934278
:103CE00019D3236863602846E7E7C06809F018FB2A
:103CF000E368226C51429B1AE3602268934202D22D
:103D0000A3680B44E360022D01D00020D5E726B163
:103D1000013E0020D1E72846CFE70020CDE7000094
:103D200070B582B00190846C5CB1A26BE36B9A4277
:103D30000DD2A26BE36B9A420FD30025284602B046
:103D400070BD40F6D531174805F0AAFDEDE740F605
:103D5000D631144805F0A4FDEBE794F8456076B23F
:103D6000002201A92046FFF79FFF0546B6F1FF3F5D
:103D700006D07F2E0FD0013676B284F84560DDE79D
:103D8000636A002BDAD004F1240000F0D1FF002890
:103D9000D4D00125D2E740F6F631024805F080FD87
:103DA000E9E700BF74D500080346026C6AB110B59C
:103DB0000846D9681144D9609C68A14201D31968AA
:103DC000D960D96809F0ACFA10BD704738B505461E
:103DD000FFF7F0FD95F8454064B208E06B6AB3B1B7
:103DE00005F1240000F0A4FF70B9013C64B2002C7E
:103DF0000DDDAB6C002BF1D02846FFF791FF0028BA
:103E0000F3D001F057F8F0E701F054F8EDE7FF23A5
:103E100085F84530FFF7F0FDFFF7CCFD95F84440FD
:103E200064B201E0013C64B2002C0ADD2B6943B1AD
:103E300005F1100000F07CFF0028F3D001F03AF803
:103E4000F0E7FF2385F84430FFF7D6FD38BD0000CA
:103E500038B550B10D460446C36B63B940F2451105
:103E6000244805F01DFD002038BD4FF4887121481D
:103E700005F016FDF2E7026C0021A2FB0323E3B973
:103E80000029EBD1FFF796FD2368E26B216C01FB63
:103E90000230A0600020A0636360013A02FB01339E
:103EA000E360FF2384F8443084F84530C5B92369C2
:103EB0002BB9FFF7A1FD0120D6E70121E0E704F1CE
:103EC000100000F035FF0028F3D04FF0E0234FF052
:103ED0008052C3F8042DBFF34F8FBFF36F8FE8E715
:103EE00004F11000FFF7C0FC04F12400FFF7BCFC54
:103EF000DFE700BF74D5000810B5029C0B4649B936
:103F00002460E063236401212046FFF7A1FF002322
:103F1000A36410BD2260F4E7F0B583B0E0B10C46B5
:103F2000174605460023A4FB00129AB9A3B904FB67
:103F300005F010F14D0F0FD84C30FFF753FC06463B
:103F400080B100903B4600F14C0221462846FFF725
:103F5000D3FF07E00123E9E74FF4E371034805F0DD
:103F60009FFC0026304603B0F0BD00BF74D50008AA
:103F7000F0B585B00F4601921D46044648B177B1B1
:103F8000022D15D000F09CFF08B9019BCBB900268B
:103F900071E040F22E315C4805F082FCEFE7236CC3
:103FA000002BEDD040F22F31574805F079FCE7E7C0
:103FB000E36B012BE6D04FF44C71534805F070FCD5
:103FC000E0E740F23331504805F06AFCDFE7A66BCA
:103FD0002A4639462046FFF767FEA36CABB1022D97
:103FE00000D16EB92046FFF79BFE48B14FF0E023A9
:103FF0004FF08052C3F8042DBFF34F8FBFF36F8F84
:10400000FFF7FAFC012005B0F0BD636A63B9002830
:10401000F6D04FF0E0234FF08052C3F8042DBFF3E9
:104020004F8FBFF36F8FEBE704F1240000F080FEA9
:104030000028E5D04FF0E0234FF08052C3F8042D64
:10404000BFF34F8FBFF36F8FDAE7FFF7D5FC002088
:10405000D9E702A800F0E2FE012619E0002384F867
:10406000443021E0002384F8453023E02046FFF768
:10407000ADFE00F029FDFFF79DFCA26BE36B9A42B9
:10408000A5D3022DA3D0019B002BDED0002EE0D0C3
:10409000FFF7B2FC00F052FCFFF78CFC94F84420D0
:1040A00052B2B2F1FF3FD9D094F8452052B2B2F1EA
:1040B000FF3FD7D0FFF7A0FC01A902A800F0BAFE8D
:1040C000D8B92046FFF7D4FD0028CFD0019904F1DC
:1040D000100000F0E9FD2046FFF778FE00F0F4FC48
:1040E0000028C8D14FF0E0234FF08052C3F8042DD0
:1040F000BFF34F8FBFF36F8FBDE72046FFF766FE1C
:1041000000F0E2FC00207EE774D5000848B108B555
:10411000002181600160C1600B460A46FFF728FF5D
:1041200008BD704710B5024600210120FFF7F4FEDC
:104130000446FFF7EBFF204610BD00002DE9F047D5
:104140000E4691461D460446C8B1F6B1022D25D053
:10415000FFF75AFDEFF311884FF0800383F31188C6
:10416000BFF36F8FBFF34F8FA26BE36B9A421ED3E7
:10417000022D1CD0002088F31188BDE8F08740F2A2
:1041800002412E4805F08CFBDFE7236C002BDDD0CD
:1041900040F20341294805F083FBD7E7E36B012B8D
:1041A000D6D040F20441254805F07AFBD0E794F8D8
:1041B00045707FB2D4F838A02A4631462046FFF732
:1041C00073FDB7F1FF3F07D07F2F27D001377FB2B4
:1041D00084F845700120CEE7A36C7BB1022D02D19B
:1041E000BAF1000F20D12046FFF79AFDF0B1B9F1E6
:1041F000000F1DD00120C9F80000BCE7636A0BB9AD
:104200000120B8E704F1240000F092FD90B1B9F16B
:10421000000F11D00120C9F80000ACE740F28D4139
:10422000064805F03DFBD1E70120A4E70120A2E705
:104230000120A0E701209EE701209CE774D500083B
:10424000F0B585B00F460192044638B167B100F071
:1042500037FE08B9019B83B9002653E040F2515163
:10426000494805F01DFBF1E7236C002BEFD040F22D
:104270005551454805F014FBE9E740F25A514248D0
:1042800005F00EFBE8E739462046FFF78DFD013DBE
:10429000A563236923B9FFF7AFFB012005B0F0BD8B
:1042A00004F1100000F044FD0028F4D04FF0E023AA
:1042B0004FF08052C3F8042DBFF34F8FBFF36F8FC1
:1042C000E9E7FFF799FB0020E8E702A800F0A6FD68
:1042D000012621E0002384F8443029E0002384F8FB
:1042E00045302BE02046FFF771FD00F0EDFB09E0C3
:1042F0002046FFF76BFD00F0E7FB2046FFF7C7FC09
:1043000000283FD1FFF756FBA56B002DBBD1019BC9
:10431000002BD6D0002ED8D0FFF76EFB00F00EFB9E
:10432000FFF748FB94F844305BB2B3F1FF3FD1D0C4
:1043300094F845305BB2B3F1FF3FCFD0FFF75CFBA1
:1043400001A902A800F076FD0028D1D12046FFF790
:104350009EFC0028C6D0019904F1240000F0A4FCC2
:104360002046FFF733FD00F0AFFB0028CAD14FF025
:10437000E0234FF08052C3F8042DBFF34F8FBFF3FB
:104380006F8FBFE7002089E774D5000870B584B04F
:104390000191044648B1236C6BB900F091FD08B956
:1043A000019B73B90026354662E040F2E35159485B
:1043B00005F076FAEFE740F2E751564805F070FA5B
:1043C000EBE740F2EC51534805F06AFAEAE7013BAB
:1043D000A363236833B1236943B9FFF70DFB0120C1
:1043E00004B070BD00F09EFEA060F4E704F1100080
:1043F00000F09EFC0028F0D04FF0E0234FF08052F8
:10440000C3F8042DBFF34F8FBFF36F8FE5E71EB9DD
:10441000FFF7F2FA0020E3E740F232613D4805F091
:104420003FFAF5E702A800F0F9FC01252AE0002395
:1044300084F8443032E0002384F8453034E0FFF75C
:10444000B9FAA06800F04CFD0646FFF7D5FA3BE04C
:104450002046FFF7BBFC00F037FB09E02046FFF7E2
:10446000B5FC00F031FB2046FFF711FC002842D1DB
:10447000FFF7A0FAA36B002BA9D1019B002BC6D09C
:10448000002DCFD0FFF7B8FA00F058FAFFF792FAF4
:1044900094F844305BB2B3F1FF3FC8D094F8453094
:1044A0005BB2B3F1FF3FC6D0FFF7A6FA01A902A89D
:1044B00000F0C0FC0028D1D12046FFF7E8FB00281F
:1044C000C6D02368002BBAD0019904F1240000F073
:1044D000EBFB2046FFF77AFC00F0F6FA0028C7D184
:1044E0004FF0E0234FF08052C3F8042DBFF34F8FFD
:1044F000BFF36F8FBCE70EB9002071E7FFF75AFAE0
:104500002046FFF7ADFB0146A06800F0A5FDFFF7D0
:1045100073FAF1E774D5000870B504460D461646E7
:10452000FFF748FA94F844305BB2B3F1FF3F0DD087
:1045300094F845305BB2B3F1FF3F0BD0FFF75CFA64
:10454000A36B5BB12046FFF741FC70BD002384F8EC
:104550004430EDE7002384F84530EFE73246294642
:1045600004F1240000F0BAFBECE70000074B1B68E5
:10457000012BFBD94FF0E0234FF08052C3F8042DFC
:10458000BFF34F8FBFF36F8FF0E700BFBCA00020D9
:10459000074B1B681B6823B9064B4FF0FF321A60AC
:1045A0007047034B1B68DB681A68024B1A60704740
:1045B00090A0002040A000202DE9F0470746984633
:1045C000089DDDF824900A9C266B02F18042013A96
:1045D00006EB820626F00706002945D008464FF074
:1045E000000CBCF1130F09D810F90C2004EB0C03DC
:1045F00083F8342012B10CF1010CF2E7002384F8A7
:104600004730092D34D8E562A5644FF0000AC4F89C
:104610004CA0201DFFF733F904F11800FFF72FF924
:104620002461C5F10A05A56164621422514604F1B2
:10463000500008F083FE0422514604F1640008F0A3
:104640007DFE0122514604F1680008F077FE4246E3
:1046500039463046FFF780F92060B9F1000F01D0EC
:10466000C9F80040BDE8F087002384F83430C8E77B
:1046700040F29731024805F013F90925C3E700BF5E
:1046800094D5000838B5002407E004EB84029300B9
:104690000C481844FFF7E8F80134092CF5D90A4D05
:1046A0002846FFF7E1F8094C2046FFF7DDF80848F7
:1046B000FFF7DAF80748FFF7D7F8074B1D60074BFD
:1046C0001C6038BDBCA00020A8A0002094A0002041
:1046D00078A0002064A0002090A000208CA00020E2
:1046E00010B50446FFF766F9284A136801331360D2
:1046F000274B1B685BB1274B1B686BB9244B1B68AE
:10470000DA6AE36A9A4207D8214B1C6004E0204B26
:104710001C601368012B36D01F4A136801331360E5
:10472000E36A01229A401D49086802430A601C4A54
:1047300003EB830302EB83035B68A3609868E0608C
:10474000211D41609960E36A03EB8301880002EB5D
:1047500081016161115801311150FFF74DF90D4B85
:104760001B687BB10A4B1B68DA6AE36A9A4209D27A
:104770004FF0E0234FF08052C3F8042DBFF34F8F6A
:10478000BFF36F8F10BDFFF77DFFC5E760A000206E
:1047900084A1002054A0002044A0002058A00020A4
:1047A000BCA0002070B504460D46234B1E68234B69
:1047B00018680430FFF77FF848B9204B1B68DB6AA4
:1047C00001229A401E490B6823EA02030B60B4F1F0
:1047D000FF3F0DD03444194B1B685C60A6421DD9C5
:1047E000184B1868154B19680431FFF74BF870BD6A
:1047F000002DEFD0144A5168104B1868816018687A
:104800008C68C46018680430606018680430886080
:104810001B685A61136801331360E8E70B4B186893
:10482000064B19680431FFF72DF8094B1B68A342AA
:10483000DDD9074B1C60DAE75CA0002084A10020D2
:1048400058A000208CA0002064A0002090A0002090
:1048500040A000202DE9F04385B007460E461446DF
:104860001D469000FEF7BEFFF8B181466C20FEF7B2
:10487000B9FF804698B1C0F83090002303930290AE
:104880000D9B01930C9B00932B46224631463846E4
:10489000FFF792FE4046FFF723FF012007E048465E
:1048A000FEF7D8FF4FF0FF3001E04FF0FF3005B0CA
:1048B000BDE8F08300B583B0184B0193002300934B
:1048C000822217491748FFF7C5FF012807D0B0F12A
:1048D000FF3F1DD0144B1B6803B05DF804FB00F0D4
:1048E000CFFD0128F3D14FF0800383F31188BFF38C
:1048F0006F8FBFF34F8F0D4B4FF0FF321A600C4B91
:1049000001221A600B4B00221A60FFF7EDF8E1E775
:104910004FF40461084804F0C3FFDBE73CA000202B
:10492000B4D500086D4500081800002040A0002004
:1049300054A000205CA0002094D50008024A13680F
:1049400001331360704700BF38A00020014B186886
:10495000704700BF5CA0002008B5FFF755F9014B78
:10496000186808BD5CA00020F8B54B4B1B68002BF5
:1049700040F08B80494B1C6801341C607CB9484B6B
:104980001B681B68B3B9464A1168464B186810602B
:104990001960454A136801331360FFF7F9FD434B73
:1049A0001B68A3420CD90020414B1B68002B71D01F
:1049B00001206FE040F6C7213E4804F071FFE2E7B6
:1049C000002037E0394B4FF0FF321A60ECE7374BED
:1049D0001A60E9E7D968516042E0002199621168E4
:1049E00001391160DA6A01219140334E3768394349
:1049F0003160324902EB82024FEA820C8C44DCF8CF
:104A000004209A609668DE6075609560DA6A02EB51
:104A1000820C4FEA8C056E185E614D5901354FEAE4
:104A20008C0C41F80C50DA6A254B1B68DB6A9A4201
:104A300000D301201A4B1B681B68002BC2D0184BF7
:104A40001B68DB68DB685A689442C0D35A699D686A
:104A5000D968A9609D684D6051681D1DA942B9D0F3
:104A6000002159611168013911609A6A002AB9D090
:104A7000DE69196AB160DE694E60566803F118019B
:104A80008E42AAD1196A5160A7E70E4A1368013312
:104A900013600020F8BD00BF38A000205CA00020FB
:104AA00090A000208CA0002048A0002040A0002062
:104AB0004CA0002094D5000858A00020BCA00020E5
:104AC00084A1002050A0002038B5494B1B6873B169
:104AD000FEF770FF464B1A68013A1A601B68002BFC
:104AE00040F08180434B1B686BB900247CE040F6AA
:104AF000B301414804F0D4FEEAE7196A516015E0B9
:104B0000D968516021E000233C4A1268002A47D04E
:104B10003A4BDB68DB689A6AD869196A8160D869A0
:104B20004860506803F118018842E6D0002199627C
:104B30001168013911605A699868D968816098686C
:104B400048605168181D8142DAD00021596111680E
:104B500001391160DA6A01219140294C2568294305
:104B60002160284902EB820201EB820252689A60BE
:104B70009468DC6060609060DA6A02EB8200840016
:104B800001EB80005861085901300851D96A1E4A6A
:104B90001268D26A9142B7D31C4A01211160B3E76F
:104BA0000BB1FFF7F5FC1A4B1C6884B9174B1C6856
:104BB000D4B14FF0E0234FF08052C3F8042DBFF37F
:104BC0004F8FBFF36F8F01240EE0013C07D0FFF73A
:104BD000CBFE0028F9D00D4B01221A60F5E70C4BF3
:104BE00000221A60E2E70024FEF706FF204638BDE7
:104BF00038A0002060A0002094D5000878A00020F4
:104C000058A00020BCA0002084A100204CA00020BF
:104C100050A000201E4B1B681BB11E4B01221A60C6
:104C2000704710B51B4B00221A601B4B1C68B4FA6E
:104C300084F4E4B2C4F11F0404EB84029300174A25
:104C4000D358C3B1154904EB840293000B445A684E
:104C500052685A6004EB8400830008330B449A4284
:104C60000FD004EB8404A2000C4B13445B68DA6899
:104C70000B4B1A6010BD40F602410A4804F010FECA
:104C8000E0E751688200054B13445960E9E700BF33
:104C900038A000204CA0002058A00020BCA000207C
:104CA00084A1002094D5000838B50C46054650B1C3
:104CB000084B196818312846FEF7E4FD012120460B
:104CC000FFF770FD38BD40F61C41034804F0E8FDD5
:104CD000EEE700BF84A1002094D5000870B50E4611
:104CE00014460546C8B16A680F4B1968CA6119684D
:104CF000906808621968183141601968183191602C
:104D00001B689D622B6801332B600CB14FF0FF369E
:104D100021463046FFF746FD70BD40F6524103483C
:104D200004F0BEFDDFE700BF84A1002094D5000899
:104D300038B5C368DC68002C48D0A36AE169226AF0
:104D40008A60E16951605A6804F118018A4243D0CF
:104D50000022A2621A68013A1A60294B1B68002BD4
:104D600040D16369A168E2688A60A16851605A68AD
:104D7000211D8A4233D0002262611A68013A1A600A
:104D8000E36A01229A401F4805682A4302601E4ACE
:104D900003EB830302EB83035B68A3609868E06026
:104DA00041609960E36A03EB8301880002EB8101B3
:104DB0006161115801311150E26A144B1B68DB6AC2
:104DC0009A421BD90120124B186038BD40F682412F
:104DD000104804F065FDB0E7226A5A60B8E7E2685F
:104DE0005A60C8E70C4B5A68E261906820624160E3
:104DF0009160A3621A6801321A60DDE70020E4E7DF
:104E000038A0002058A00020BCA0002084A10020D1
:104E10004CA0002094D5000878A00020034B1B680C
:104E20000360034B1B684360704700BF48A000202D
:104E30005CA00020F8B50C460546A8B1D4B1FEF739
:104E4000B9FD194B19686B68C81A2268B2F1FF3FA7
:104E500024D0164E36682F68B74211D08B420FD837
:104E60000023236001241AE040F6FD41104804F0BD
:104E700017FDE3E740F6FE410D4804F011FDDEE7C3
:104E8000824203D800232360012408E05B1A134404
:104E900023602846FFF7C2FF002400E00024FEF74D
:104EA000ABFD2046F8BD00BF5CA0002048A000205C
:104EB00094D50008014B01221A6070474CA00020D5
:104EC000054B1B6833B1054B1B680BB100207047C5
:104ED000022070470120704754A0002038A0002015
:104EE000002854D070B50446C36A2B4A1268D26AAF
:104EF000934244D28269002A05DB274A1268D26AAB
:104F0000C2F10A028261616903EB8303234A02EB67
:104F10008303994205D0204B1B68DB6AE3620120C2
:104F200070BD251D2846FEF7C6FC38B9E36A01228C
:104F30009A401B490B6823EA02030B60164B1B685F
:104F4000DB6AE362012000FA03F215490E6832437E
:104F50000A60124A03EB830302EB83035B68A360DE
:104F60009968E1604D609D60E36A03EB83018D0009
:104F700002EB81016161515901445151D0E7826CCA
:104F8000054B1B68DB6A9A4203D30020C8E7002068
:104F900070470120C4E700BF84A10020BCA000200E
:104FA00058A0002000284BD070B50446264B1B6843
:104FB000834204D041F24F01244804F071FCE36CB9
:104FC0004BB1E36C013BE364E16AA26C914239D0DE
:104FD0003BB1002070BD41F250011C4804F060FC60
:104FE000EFE7251D2846FEF766FC38B9E36A012283
:104FF0009A4017490B6823EA02030B60A36CE36233
:10500000C3F10A02A261012000FA03F210490E68FE
:1050100032430A600F4A03EB830302EB83035B68AE
:10502000A3609968E1604D609D60E36A03EB8301D2
:105030008D0002EB81016161515901445151C9E771
:10504000002070470020C5E784A1002094D5000807
:1050500058A00020BCA00020002859D070B50D46F3
:105060000446C36C53B1A66CAE4200D22E46E36A2E
:10507000B34202D0E36C012B06D070BD41F29F0118
:10508000244804F00DFCEEE7234B1B68A34239D003
:10509000E36AE662A269002A02DBC6F10A06A6619B
:1050A000616903EB83031D4A02EB83039942E4D158
:1050B000251D2846FEF7FFFB38B9E36A01229A4016
:1050C00017490B6823EA02030B60E36A01229A4046
:1050D0001349086802430A60104A03EB830302EB9A
:1050E00083035B68A3609968E1604D609D60E36A3B
:1050F00003EB8301880002EB8101616111580131EA
:105100001150BAE741F2BA01024804F0C9FBBFE707
:10511000704700BF94D5000884A10020BCA00020E7
:1051200058A00020054B1B6823B1044B1A68D36CB0
:105130000133D364014B1868704700BF84A100207D
:10514000064B1A6813682BB90123036023B9D3688F
:10515000186870470023F8E70020704798A10020E6
:1051600008B54160006191420CD8D21A83699A4215
:1051700001D3012008BD011D094B1868FEF782FB11
:105180000020F7E79A4201D2994206D2011D054B51
:105190001868FEF777FB0020ECE70120EAE700BF84
:1051A00094A1002098A1002070B504460D46164633
:1051B00004E0A3691D44236A20469847A1692B4651
:1051C000324629442046FFF7CBFF0028F1D170BDBD
:1051D00070B505460E460D4B1B68DB68DC68201D6C
:1051E000FEF769FB94F8243013F0040F07D123F085
:1051F000010384F82430236A2046984770BD324664
:1052000029462046FFF7D0FFF5E700BF98A1002010
:1052100008B505E0DB684FF0FF311868FFF7D8FFED
:10522000054B1B681A68002AF4D1044A1068024929
:105230000860136008BD00BF98A1002094A1002061
:1052400038B50546FFF782FB0446074B1B688342CF
:1052500005D800232B60044B1C60204638BDFFF7A7
:10526000D7FF01232B60F6E788A1002070B582B03C
:1052700006460C46FFF762FB01A8FFF7E1FF019B22
:1052800033BB0546E4B9B04213D22246711B124B20
:105290001868FFF741F9FFF717FCD8B94FF0E02382
:1052A0004FF08052C3F8042DBFF34F8FBFF36F8FC1
:1052B00010E0FFF709FC29463046FFF789FF09E0B7
:1052C000064A126812680AB90124DEE71C46DCE7C8
:1052D000FFF7FAFB02B070BD90A1002094A100205E
:1052E00030B585B0002201A9374B1868FEF7A8FF3A
:1052F000002867D0019B002BF4DB039C636913B18A
:10530000201DFEF7D8FA6846FFF79AFF0546019B75
:10531000013B082BE6D8DFE803F0050529304705F7
:105320000529300094F8243043F0010384F8243038
:10533000029BA169024619442046FFF711FF00288D
:10534000D0D094F8243013F0040F07D123F00103D8
:1053500084F82430236A20469847C3E7A3692A4685
:10536000029919442046FFF71FFFF3E794F8243011
:1053700023F0010384F82430B4E794F8243043F098
:10538000010384F82430029BA3613BB1A1692B4641
:105390002A4629442046FFF7E3FEA3E740F25931AD
:1053A0000A4804F07DFAF1E794F8243013F0020F74
:1053B00004D023F0010384F8243093E72046FEF75D
:1053C00049FA8FE705B030BD90A10020BCD5000898
:1053D00000B583B001A8FFF7B3FE0199FFF746FFC0
:1053E000FFF77EFFF6E7000038B5FEF7E3FA0D4B56
:1053F0001B6813B1FEF700FB38BD0B4D2846FEF7C6
:1054000033FA0A4C2046FEF72FFA094B1D60094B70
:105410001C6000220C210A20FEF77EFD014B186063
:10542000E8E700BF90A10020B0A100209CA10020CF
:1054300098A1002094A100202DE9F04107461546CF
:105440001E46079C884699B1FFF7CEFF2760C4F837
:105450001880E661069B2362201DFEF710FA2DB12D
:1054600094F8243043F0040384F82430BDE8F0813C
:1054700040F26B11014804F013FAE5E7BCD50008CF
:1054800010B582B0FFF7B0FF0C4B1B689BB10C4B03
:10549000019309230093002382220A490A48FFF757
:1054A000D9F9044620B940F21911084804F0F8F976
:1054B000204602B010BD0024F5E700BF90A10020F7
:1054C0008CA10020DCD50008D1530008BCD5000811
:1054D0002DE9F04182B00446884617461D46282033
:1054E000FEF780F9064658B1002380F82430019079
:1054F000089B00932B463A4641462046FFF79CFF07
:10550000304602B0BDE8F081F0B585B00C461546D6
:105510001E46074698B1154B186828B301940295AA
:105520000397052C19DCFFF7CBFC02280DD00023D4
:105530001A4601A90D480068FEF71AFD12E040F274
:105540008B110B4804F0ACF9E5E700230A9A01A996
:1055500006480068FEF70CFD04E00023324601A96E
:10556000FEF7ECFD05B0F0BD0020FBE790A10020A8
:10557000BCD5000808B500F099F808B9002008BDAE
:1055800000F08EF9024B034A1A600120F7E700BFD2
:10559000C4A100200000040808B5054B1B6833B106
:1055A000DB6D002108469847024BAA221A7008BDFD
:1055B000C4A100201C00002008B5044B1B6823B1C7
:1055C000034A552111701B6E984708BDC4A10020E5
:1055D0001C00002008B5034B1B680BB15B6E98479D
:1055E00008BD00BFC4A100202DE9F04104462648B3
:1055F0000068002844D09846066C002E42D0B0F8CF
:10560000485015B14FF0000C1BE0002038E0069F19
:10561000002F07DBC788012F04D983685F68069BCA
:105620009F420AD1079F002F2ADBC788022F27D964
:105630008768BF68079B9F4222D00CF1010C1FFABC
:105640008CFC65451BD956F82C0090F804E0A64563
:10565000F3D190F805E08E45EFD1B0F80CE0964517
:10566000EBD10768002FE8D0B8F1000FCFDBC78877
:10567000002FCCD083681F684745C8D0DDE70020E5
:10568000BDE8F0813046FBE7C4A10020054B9842FD
:1056900004D3054B984203D801207047002070477F
:1056A0000020704700000408000008082DE9F843B6
:1056B000794B1A68794B9A4202D00020BDE8F883F2
:1056C000754BD3F88840B4F1FF3F00F0C780002548
:1056D0002B461F2B0CD870494A6DD256D2B2896D19
:1056E000C956914240F0BC800133DBB20125F0E79E
:1056F000694B5E69694B9E4280F0B480664B1B69C2
:105700009E42C0F0B180644AD768BB42C0F0AE8010
:10571000D2F818804046FFF7B9FF0028CED05E4B84
:10572000D3F81C904846FFF7B1FF0028C6D0C84503
:1057300000F29E80584BD3F820804046FFF7A6FF2A
:105740000028BBD0544BD3F824904846FFF79EFF67
:105750000028B3D0C84500F28D804F4BD3F8289075
:105760004846FFF793FF0028A8D04B4BD3F82C8076
:105770004046FFF78BFF0028A0D0C1457CD8464BA0
:10578000DA6B40F29B139A4278D1434B1B6B012B8F
:1057900076D1414B5B6B002B74D13F4BD86DFFF73B
:1057A00075FF00288AD03C4B186EFFF76FFF00286A
:1057B00084D0394B586EFFF769FF00283FF47EAF65
:1057C000354B986EFFF762FF00283FF477AF324BFE
:1057D000D86EFFF75BFF00283FF470AF2E4B186FB9
:1057E000FFF754FF00283FF469AF2B4B586FFFF7CA
:1057F0004DFF00283FF462AF274B986FFFF746FF3D
:1058000000283FF45BAF244BD86FFFF73FFF002821
:105810003FF454AF204BD3F88000FFF737FF002848
:105820003FF44CAF1C4BD3F88400FFF72FFF002848
:105830003FF444AF2046FFF729FF00283FF43EAF76
:10584000154B1B6C9F421FD89E421FD3124B5B6CA3
:105850009F421DD89E421DD328462FE700202DE7EA
:1058600000202BE7002029E7002027E7002025E77C
:10587000002023E7002021E700201FE700201DE78C
:1058800000201BE7002019E7002017E7002015E79C
:10589000002013E7002011E70000040800000220A8
:1058A00038B5134AD3681069926803E052F8041BB4
:1058B00043F8041B8342F9D30D4A516902E00022E8
:1058C00043F8042B8B42FAD3094B9C69DD6902E053
:1058D00054F8043B9847AC42FAD3054B1C6A5D6A06
:1058E00002E054F8043B9847AC42FAD338BD00BFFD
:1058F0000000040830B58DB000240094534B1A6B9F
:1059000042F002021A631A6B02F002020092009A3D
:1059100001945A6C42F480725A645A6C02F4807298
:105920000192019A02941A6B42F480021A631B6B73
:1059300003F480030293029B0325079508950994BD
:1059400007A94348FBF7D2FD4248434B03604FF49D
:10595000003343608460C46001230361037680F8F0
:10596000204080F83030436103F1706383624FF070
:105970008053C362C561FAF7B7FD00284DD10723F4
:105980000593082303930123049303A93148FBF7EC
:105990009DF8002846D1092303930223049303A909
:1059A0002C48FBF793F8002841D12C4B0393032399
:1059B000049303A92748FBF789F800283CD128481D
:1059C000284B0360002343608360C3604FF4806210
:1059D00002614FF4006242614FF400528261C36180
:1059E0004FF4003202624362032383624FF40003E8
:1059F000C3624FF400130363FBF796FA08BB154A22
:105A0000174B93639A6300220B213820FBF7A4F90C
:105A10003820FBF7C5F90DB030BD4521124803F021
:105A20003FFFACE74F21104803F03AFFB3E75621A0
:105A30000D4803F035FFB8E75D210B4803F030FF58
:105A4000BDE77021084803F02BFFD8E7003802407B
:105A50000004024088A40020002001401200001031
:105A600024A4002010640240E4D5000808B5084BC7
:105A70001B7803B108BD4FF4967206490648FAF741
:105A800053FE0028F6D1024B01221A70F2E700BF44
:105A900020A40020C8A1002088A4002008B5034845
:105AA000FAF714FE024B00221A7008BD88A40020E9
:105AB00020A4002008B50248FAF7FCFE08BD00BF8C
:105AC00088A4002008B5024B986BFBF71FFC08BDAB
:105AD00088A4002008B5054B834200D008BD044BC4
